:020000020000FC
:10000000529AFBE20CD0FAEA0AD0F4E208D0B0E04F
:10001000AA2716D020D0A395A830DCF3F2CF78E041
:10002000F0FD2BD0F0FF2FD000E012EE24E041D005
:10003000F6957A95A9F700E613EE26E13AD00895F1
:100040004B9981E04C9991E04B9B80E04C9B90E078
:1000500089130895F5CF4B9981E04C9991E04B9B22
:1000600080E04C9B90E0813029F4913001F4BB0F8B
:10007000B39503D0BB0F07D0089538E843E15AEA9F
:1000800060E007D0089530E147E25EE660E001D02D
:1000900008955A9A04E6112722270BD05A98032F65
:1000A000142F222706D0189488945140604089F775
:1000B000089500000000000018948894014010404A
:0600C0002040B9F708958D
:00000001FF
