:020000020000FC
:10000000529A559A8155F09937DAF0E0E2E031964C
:100010008DD08CD000E01AE628E193D0F491EF2F38
:100020000FD0B0E077275D9A1CD026D0739578303A
:10003000DCF35D98FB1363D0FB13EACF44D0E7CF2A
:1000400078E0E0FD24D0E0FF28D000E012EE24E0CC
:1000500078D0E6957A95A9F700E613EE26E171D0FF
:1000600008954B9981E04C9991E04B9B80E04C9B2B
:1000700090E089130895F5CF813031F0913001F08F
:10008000B695B06804D00895B69507D0089538E8BD
:1000900043E15AEA60E007D0089530E147E254E6D0
:1000A00060E001D008955A9A04E61127222749D02A
:1000B0005A98032F142F222744D018948894514023
:1000C000604089F7089500E01AE628E13AD030E46C
:1000D0004FE153E260E0E7DF00E01DE720E031D0D0
:1000E00030E44FE153E260E0DEDF00E81EE320E0B1
:1000F00028D038EB4BE054EB60E0D5DF089500E00A
:100100001AE628E11ED030E44FE152E360E0CBDF95
:1001100000E81EE320E015D000E81EE320E011D047
:1001200030EE4EE255E560E0BEDF08955D9A00E2F4
:1001300016ED23E106D05D9800E216ED23E101D033
:1001400008950000000000001894889401401040B9
:060150002040B9F70895FC
:00000001FF
