:020000020000FC
:10000000529AB0E0AA271CD026D0A395A830DCF3E2
:1000100000E01AE628E146D0FB2F01D0F2CF78E0CD
:10002000F0FD24D0F0FF28D000E012EE24E03AD01A
:10003000F6957A95A9F700E613EE26E133D00895F8
:100040004B9981E04C9991E04B9B80E04C9B90E078
:1000500089130895F5CF813031F0913001F0BB0F55
:10006000B39504D00895BB0F07D0089538E843E155
:100070005AEA60E007D0089530E147E254E660E0D4
:1000800001D008955A9A04E6112722270BD05A98D6
:10009000032F142F222706D01894889451406040D3
:1000A00089F708950000000000001894889401402A
:0800B00010402040B9F708954B
:00000001FF
