:020000020000FC
:10000000529A559A55F000004E9BFECF53D0F0E027
:10001000E4E022D0BCD0BBD01FD0C491CC23B9F037
:1000200000E01AE628E1BED08C2F1BD0B0E0772785
:100030005D9A29D034D073957830DCF35D98CB1776
:1000400009F003C071D03196E4CF8AD0E2CF6CD0F2
:100050006BD06AD001D0FECF4E9908955D9839D00B
:10006000D3CF78E0F9DF80FD43D080FF47D000E0B8
:1000700012EE24E097D086957A95A1F700E613EE6C
:1000800026E190D00895E8DF4B9981E04C9991E00A
:100090004B9B80E04C9B90E089130895F4CF813016
:1000A00031F0913001F0B695B06822D00895B69540
:1000B00025D0089500E01AE628E174D030E44FE13D
:1000C00053E260E021D038E54BE153E260E01CD020
:1000D000089500E01AE628E165D038E54BE153E2E7
:1000E00060E012D030E44FE153E260E00DD00895BB
:1000F00038E843E15AEA60E007D0089530E147E28A
:1001000054E660E001D008955A9A04E611272227A8
:1001100049D05A98032F142F222744D0189488943A
:100120005140604089F7089500E01AE628E13AD08E
:1001300030E44FE153E260E0E7DF00E01DE720E05C
:1001400031D030E44FE153E260E0DEDF00E81EE34F
:1001500020E028D038EB4BE054EB60E0D5DF089589
:1001600000E01AE628E11ED030E44FE152E360E0FF
:10017000CBDF00E81EE320E015D000E81EE320E01E
:1001800011D030EE4EE255E560E0BEDF08955D9A95
:1001900000E216ED23E106D05D9800E216ED23E1C2
:1001A00001D00895000000000000189488940140D8
:0801B00010402040B9F708954A
:00000001FF
